:10001E007D0F7F01120193AE08AF097C277D101270
:10002E00010BEF4E6004AD078011AE08AF097C03E3
:10003E007DE812010BEF4E601B7D127F04120193BF
:10004E00AE08AF097C037DE812010B7C007D0A121D
:10005E00010B8018AE08AF097C007D6412010BEF16
:10006E004E60397D127F041201937D127F051201BD
:10007E0093AE08AF097C007D6412010B7C007D0AF3
:10008E0012010B7F06120193AE08AF097C007D0AA8
:10009E0012010B7C007D0A12010B804BAE08AF09DA
:1000AE007C007D0A12010BEF4E7D127F046025123B
:1000BE0001937D127F051201937D127F061201932B
:1000CE00AE08AF097C007D0A12010B7C007D0A127E
:1000DE00010B80131201937D127F051201937D1285
:1000EE007F061201937D127F07120193AE08AF09AE
:0D00FE007C007D0A12010B7F081201932285
:080003001201F012001E80FB47
:03000B0002000EE2
:0D000E00C0E0050BE50B7002050AD0E032E2
:03001B000201C51A
:1001C500C0E0C0D0758D3C758BB0050CC3E50C94B3
:1001D5001474809480400F850A08850B09750A0000
:0B01E500750B00750C00D0D0D0E0328C
:10020A00EF1FAC0670011E4C600A7D0B7CBEDCFE43
:04021A00DDFC80EC9B
:01021E0022BD
:10016000EF24FD602724FE6011146015146019242B
:1001700003701FD2A7C2A6C2A522D2A7C2A6D2A52B
:1001800022D2A7D2A6C2A522D2A78002C2A7D2A6F7
:03019000D2A522D3
:10021F00C0F9A4B0999282F880908883C6A1868E87
:03022F00BF00FF0E
:100193008F0D8D0E7F06120160E50D14FFF87401BB
:1001A300088002C333D8FCF5807F07120160E50E97
:1001B30090021F93F5807F017E0012020A7F0302E3
:0201C3000160D9
:1001F000758916758CFF758AFF758D3C758BB0D22D
:0A0200008CD28ED2AFD2A9D2AB226D
:03000000020232C7
:0C023200787FE4F6D8FD75810E02000311
:10010B00BC000BBE0029EF8DF084FFADF022E4CCD8
:10011B00F875F008EF2FFFEE33FEEC33FCEE9DECA1
:10012B00984005FCEE9DFE0FD5F0E9E4CEFD22EDE7
:10013B00F8F5F0EE8420D21CFEADF075F008EF2F31
:10014B00FFED33FD4007985006D5F0F222C398FD22
:05015B000FD5F0EA22BF
:00000001FF
